:020000040000FA
:1000000000008A11022B32211B211A21BB201A2049
:100010000800FF3083120313E100E200E300013027
:10002000E400FF3083120313E500E600E70001302F
:10003000E8000800013083120313C200C401C501A7
:10004000C60183120313650883120313C7008312CA
:100050000313660883120313C8008312031367088F
:1000600083120313C900013083120313680583123E
:100070000313CA004708FF3A031D4A284808FF3AFD
:10008000031D4A284908FF3A031D4A284A08013A35
:1000900003194E288A11C0228A1151288A11BC22C4
:1000A0008A1183120313C701193083120313470205
:1000B0000318BA284208831203136105831203133D
:1000C000C800440883120313620583120313C90096
:1000D000450883120313630583120313CA004608FD
:1000E00083120313640583120313CB0042088312A7
:1000F0000313650583120313CC0044088312031312
:10010000660583120313CD004508831203136705A8
:1001100083120313CE00460883120313680583126B
:100120000313CF004C084806031DA2284D084906BA
:10013000031DA2284E084A06031DA2284F084B069D
:100140000319B128831203134C084D044E044F04C5
:10015000031DAD2847088E21B128831203134708D9
:100160006121031083120313C20DC40DC50DC60D0A
:10017000C70A542808008312031369088A11BB2197
:100180008A1183120313C000400803191929C00102
:10019000C101C3010130C200C4011A30831203132C
:1001A00044020318FC2840088312031365058312D8
:1001B0000313C5004108831203136605831203135A
:1001C000C600430883120313670583120313C70095
:1001D000420883120313680583120313C8004508FD
:1001E0004604470448040319FC280310C20CC30C3E
:1001F000C10CC00CC40ACD2883120313400983121A
:100200000313E50083120313C000C109C309C20927
:10021000410883120313E600831203134308831279
:100220000313E70001308312031342058312031303
:10023000E800080008008312031369088A11C52129
:100240008A1183120313C000400803193129831255
:1002500003136509E5006609E6006709E700680918
:10026000E800080083120313650883120313E100FA
:1002700083120313660883120313E200831203132D
:10028000670883120313E3008312031368088312C1
:100290000313E400003083120313C0006530C10073
:1002A0000030C2006930FB004208FC000030FD0055
:1002B0004108FE004008FF0000308A11DA218A114F
:1002C000080083120313C0008312031369088A1104
:1002D000D3218A1183120313C1000F30C10590305E
:1002E000C10441088A11C4228A11831203134008F1
:1002F0006F3EC00004300318013EC1004008FE00FC
:100300004108FF0080308A113B248A118A11C422DF
:100310008A1100308A11C4228A1108008312031343
:10032000C0008312031369088A11D3218A11831232
:100330000313C1000F30C1059030C10441088A1178
:10034000C4228A118312031340086F3EC000043098
:100350000318013EC1004008FE004108FF00803044
:100360008A113B248A118A11C4228A117F308A1192
:10037000C4228A11080083120313BA008030BA0520
:100380003A0DBB01BB0D3B08080083120313B800F4
:100390004030B805380E0F39B9000310B90C0310FE
:1003A000B90C3908080083120313B7000F30B705E2
:1003B0003708080083120313A7007F08A6007E08F1
:1003C000A5007D08AA007C08A9007B08A8008A1166
:1003D000DA238A11D52283120313AB00831203138D
:1003E000BC00D52283120313AB0083120313BD009C
:1003F000D52283120313AB0083120313BE00D52250
:1004000083120313AB0083120313BF008A11A623C8
:100410008A1183120313AB002B0CAC01AC0C2C081B
:10042000FD002808FE002908FF002A088A111A2466
:100430008A118A11D2238A11831203132808FE001D
:100440002908FF002A088A113B248A11831203130A
:10045000AB00831203133C0883120313AC00AC13EC
:100460002C08AB042B08FD002808FE002908FF001B
:100470002A088A111A248A11831203133F0883124F
:100480000313A800AF00A900AA01AB01AC01AE01A3
:10049000AD01A801831203133E0883120313A900C0
:1004A000B000B101B201B3010030B600B401A9013E
:1004B0000030A8040030AD043008B500AE043608A2
:1004C000AF04831203133D0883120313A900B40081
:1004D000B000B101B201B3010030B600B500A9010E
:1004E0000030A8043408AD043508AE043608AF0463
:1004F000831203133C0883120313A900B000B10157
:10050000B201B3010030B600B5000030B4003008CD
:10051000A900A8043408AD043508AE043608AF04B9
:100520002F08FD002E08FC002D08FB002808FA000B
:100530002508FE002608FF0027088A1126248A11B4
:1005400083120313280D2D0DA9002E0DB0002F0DC1
:10055000B100B201B20D3208FD003108FC003008D4
:10056000FB002908FA002508FE002608FF002708DE
:100570008A1126248A1108008A11B4238A110800DE
:100580008A11BC238A11080083120313A3008A1165
:1005900096238A1183120313A40024080319C72A7F
:1005A00023088A11A2238A11080083120313A001D1
:1005B0000730A100831203132108FF3A0319FE2A12
:1005C0008A11E2238A118A11C4238A118312031328
:1005D000A2002108003C0319F32A83120313A20D81
:1005E000013E031CED2A831203132208A0048A1182
:1005F000EA238A1183120313A103DA2A8312031355
:10060000200808008830FE000430FF0080308A1186
:1006100000004E248A11000083120313D1007F08CA
:10062000D0008A30D2000430D30083120313500864
:10063000D4005108D500FF30D007031CD103540863
:1006400055040319922B04305207D400D501D50D5F
:100650005308D5075408FE005508FF0080308A1162
:1006600000004E248A11000083120313D7007F0874
:10067000D6005208FE005308FF0080308A110000A7
:100680004E248A11000083120313D900D5007F087D
:10069000D800D40002305207D400D501D50D53083C
:1006A000D5075408FE005508FF0080308A1100006D
:1006B0004E248A11000083120313D500DB007F084B
:1006C000D400DA00831203135608DA005708DB005F
:1006D000FF30D607031CD7035A085B0403198B2B82
:1006E0005808FE005908FF0080308A1100003B24A2
:1006F0008A11000083120313DA0054088400831364
:10070000551883175A088000D80A0319D90AD40A41
:100710000319D50A622B063083120313D20703187C
:10072000D30A152B8A110000902C080083120313A2
:100730000C0883120313E000E018A02B0030A12B5B
:100740000130080083120313950008002030831243
:100750000313050583120313DE005E0E0F39DF005D
:100760000310DF0C5F08080083120313EA116A0804
:10077000831203138700080083120313EA156A0823
:100780008312031387000800043083120313070544
:1007900083120313DC0003105C0CDD000310DD0C7E
:1007A0005D080800831203136A106A08831203139A
:1007B00087000800831203136A146A088312031364
:1007C0008700080083120313EA106A0883120313D8
:1007D0008700080083120313EA146A0883120313C4
:1007E00087000800142410240224F7230800831231
:1007F0000313910103309300920120309600803062
:1008000097000800FF30831603138500E43087004B
:10081000910183120313EA01831203138701080075
:10082000831203138B0108007130831603138F00AA
:1008300090010800003A03191E2C08007E0884006D
:1008400083137F1883177D0880000800003A03197E
:100850002A2C08007E08840083137F1883177A08E7
:100860008000840A7B088000840A7C088000840A57
:100870007D0880000800003A0319422C803A0319D1
:10088000492C00347E08840083137F1883170008E6
:1008900008007F088A007E0882000800003A0319D9
:1008A000562C803A0319602CFF0100347E08840026
:1008B00083137F1883170008FF00840A00080800CC
:1008C0008A1100004924FD00FE0FFF03FF0A8A1170
:1008D00000004924FC007D08FF007C08080030343B
:1008E0002F342E342D342C342B342A34293428340C
:1008F000273426342534243423342234213420343C
:100900001F341E341D341C341B341A34193418346B
:1009100001340034A33404346B3400340134003423
:100920008A1197248A118A119E248A1108008A113B
:10093000F2238A118A1109208A1108008A110320E2
:080940008A119E2C080000340E
:02400E00D400DC
:00000001FF
