:020000040000FA
:1000000000008A11852B16211521BA20192008001D
:10001000FF3083120313D700D800D9000130DA0073
:10002000FF3083120313DB00DC00DD000130DE0053
:100030000800013083120313BE00BD01C301C001DB
:10004000831203135B0883120313BF00831203138D
:100050005C0883120313C400831203135D08831228
:100060000313C1000130831203135E0583120313CF
:10007000C5003F08FF3A031D49284408FF3A031D05
:1000800049284108FF3A031D49284508013A031948
:100090004D288A11A5228A1150288A11A1228A117D
:1000A00083120313BF011930831203133F02031895
:1000B000B9283E0883120313570583120313C400A3
:1000C0003D0883120313580583120313C10043082C
:1000D00083120313590583120313C50040088312CA
:1000E00003135A0583120313C6003E088312031339
:1000F0005B0583120313C7003D08831203135C05DD
:1001000083120313C8004308831203135D0583128F
:100110000313C9004008831203135E0583120313FF
:10012000CA0047084406031DA12848084106031DCC
:10013000A12849084506031DA1284A0846060319B7
:10014000B028831203134708480449044A04031DD6
:10015000AC283F088221B028831203133F0859219D
:10016000031083120313BE0DBD0DC30DC00DBF0AD6
:10017000532808000030831203136504031914295F
:1001800083120313BB01BC01C2010130BE00BD01DB
:100190001A30831203133D020318F7283B08831219
:1001A00003135B0583120313C3003C08831203137C
:1001B0005C0583120313C0004208831203135D051C
:1001C00083120313BF003E08831203135E058312DC
:1001D0000313C400430840043F0444040319F728F0
:1001E0000310BE0CC20CBC0CBB0CBD0AC828831289
:1001F00003133B0983120313DB0083120313BB00B9
:10020000BC09C209BE093C0883120313DC00831237
:100210000313420883120313DD000130831203131A
:100220003E0583120313DE00080008008312031347
:100230005B0883120313D700831203135C08831235
:100240000313D800831203135D0883120313D9002C
:10025000831203135E0883120313DA000030831243
:100260000313BB005B30BC000030BE006330BD0038
:100270000030C0006430BF000030C1006530F500C0
:100280004108F6000030F7003F08F8004008F90088
:100290000030FA003D08FB003E08FC000030FD0085
:1002A0003C08FE003B08FF0000308A11AB218A1198
:1002B000080083120313BB000F308312031363057E
:1002C00083120313BC009030BC043C088A11A9229D
:1002D0008A11831203133B086E3EBB0004300318DF
:1002E000013EBC003B08FE003C08FF0080308A1144
:1002F0003A248A118A11A9228A1100308A11A9226E
:100300008A11080083120313BB000F3083120313FA
:10031000630583120313BC009030BC043C088A11AF
:10032000A9228A11831203133B086E3EBB000430DE
:100330000318013EBC003B08FE003C08FF00803073
:100340008A113A248A118A11A9228A117F308A11CE
:10035000A9228A11080083120313A7007F08A600B0
:100360007E08A5007D08AA007C08A9007B08A800DB
:100370007A08AD007908AC007808AB007708B000C7
:100380007608AF007508AE008A1118238A118A1109
:1003900046238A11BA2283120313B1008312031376
:1003A000B700BA2283120313B10083120313B800FB
:1003B000BA2283120313B10083120313B900BA22C5
:1003C00083120313B10083120313BA008A11FD22B2
:1003D0008A1183120313B100FD002E08FE002F08BE
:1003E000FF0030088A1119248A118A1118238A11F2
:1003F0008A113E238A1183120313370883120313D1
:10040000AE000F30AE052E08FD002808FE002908BA
:10041000FF002A088A1119248A118312031337084E
:1004200083120313A8007030A805280E0F39A90005
:10043000FD002B08FE002C08FF002D088A1119244E
:100440008A11831203133A0883120313A800AF0022
:10045000A900AA01AB01AC01AE01AD01A801831254
:100460000313390883120313A900B000B101B201CC
:10047000B3010030B600B401A9010030A804003077
:10048000AD043008B500AE043608AF048312031380
:10049000380883120313A900B400B000B101B201FF
:1004A000B3010030B600B500A9010030A80434083B
:1004B000AD043508AE043608AF04831203133708C1
:1004C00083120313A900B000B101B201B3010030DF
:1004D000B600B5000030B4003008A900A804340804
:1004E000AD043508AE043608AF042F08FD002E0811
:1004F000FC002D08FB002808FA002508FE0026084D
:10050000FF0027088A1125248A1183120313280D5E
:100510002D0DA9002E0DB0002F0DB100B201B20DAE
:100520003208FD003108FC003008FB002908FA0001
:100530002508FE002608FF0027088A1125248A11B5
:1005400008008A1108238A1108008A1110238A11D1
:10055000080083120313A3008A11ED228A1183126B
:100560000313A40024080319AC2A23088A11F922D2
:100570008A11080083120313A0010730A10083121F
:1005800003132108FF3A0319DC2AE0228A113323DE
:100590008A1183120313A2002108003C0319D62AF2
:1005A00083120313A20D013E031CD02A83120313EE
:1005B0002208A004A103BF2A831203132008080005
:1005C0008A1118238A118A1156238A118A11182335
:1005D0008A118A114E238A110800831203130C0812
:1005E00083120313E200E218F72A0030F82A0130E0
:1005F0000800831203139500080083120313050EED
:100600000F3983120313E1000310E10C61080800A5
:1006100083120313E6116608831203138700080090
:1006200083120313E615660883120313870008007C
:10063000FF3083120313E00083120313E00B1C2B23
:10064000FF30E00083120313E00B222BFF30E000A9
:1006500083120313E00B282BFF30E00083120313F7
:10066000E00B2E2B0800031083120313070C8312D8
:100670000313DF000310DF0C5F080800831203136D
:1006800066106608831203138700080083120313A1
:10069000661466088312031387000800831203138D
:1006A000E610660883120313870008008312031301
:1006B000E614660883120313870008007F237B2358
:1006C0006E23632308008312031391010230930009
:1006D000920120309600803097000800FF3083168A
:1006E00003138500E430870083120313E6018312AD
:1006F000031387010800831203138B010800613084
:10070000831603138F00900108008730FE00043029
:10071000FF0080308A1100004D248A1100008312EE
:100720000313CC007F08CB008930CD000430CE000D
:10073000831203134B08CF004C08D000FF30CB07C7
:10074000031CCC034F0850040319152C04304D072B
:10075000CF00D001D00D4E08D0074F08FE00500842
:10076000FF0080308A1100004D248A11000083129E
:100770000313D2007F08D1004D08FE004E08FF0091
:1007800080308A1100004D248A1100008312031367
:10079000D400D0007F08D300CF0002304D07CF0037
:1007A000D001D00D4E08D0074F08FE005008FF00C2
:1007B00080308A1100004D248A1100008312031337
:1007C000D000D6007F08CF00D50083120313510854
:1007D000D5005208D600FF30D107031CD2035508BC
:1007E000560403190E2C5308FE005408FF008030F5
:1007F0008A1100003A248A11000083120313D500E5
:100800004F08840083135018831755088000D30ABB
:100810000319D40ACF0A0319D00AE52B0630831234
:100820000313CD070318CE0A982B8A1100008F2CD2
:100830000800003A03191D2C08007E088400831369
:100840007F1883177D0880000800003A0319292CBF
:1008500008007E08840083137F1883177A088000BD
:10086000840A7B088000840A7C088000840A7D0852
:1008700080000800003A0319412C803A0319482CE3
:1008800000347E08840083137F1883170008080053
:100890007F088A007E0882000800003A0319552C60
:1008A000803A03195F2CFF0100347E088400831313
:1008B0007F1883170008FF00840A000808008A11C7
:1008C00000004824FD00FE0FFF03FF0A8A1100000C
:1008D0004824FC007D08FF007C08080030342F34D9
:1008E0002E342D342C342B342A3429342834273414
:1008F00026342534243423342234213420341F3444
:100900001E341D341C341B341A3419341834013489
:100910000034A234043467340034013400348A11C2
:1009200096248A118A119D248A1108008A115E2357
:100930008A118A1108208A1108008A1103208A115D
:060940009D2C08000034AC
:00000001FF
